{"abi":[{"type":"constructor","inputs":[{"name":"_name","type":"string","internalType":"string"},{"name":"_symbol","type":"string","internalType":"string"},{"name":"decimals_","type":"uint8","internalType":"uint8"},{"name":"_owner","type":"address","internalType":"address"}],"stateMutability":"nonpayable"},{"type":"function","name":"addMinter","inputs":[{"name":"_minter","type":"address","internalType":"address"}],"outputs":[],"stateMutability":"nonpayable"},{"type":"function","name":"allowance","inputs":[{"name":"owner","type":"address","internalType":"address"},{"name":"spender","type":"address","internalType":"address"}],"outputs":[{"name":"","type":"uint256","internalType":"uint256"}],"stateMutability":"view"},{"type":"function","name":"approve","inputs":[{"name":"spender","type":"address","internalType":"address"},{"name":"value","type":"uint256","internalType":"uint256"}],"outputs":[{"name":"","type":"bool","internalType":"bool"}],"stateMutability":"nonpayable"},{"type":"function","name":"balanceOf","inputs":[{"name":"account","type":"address","internalType":"address"}],"outputs":[{"name":"","type":"uint256","internalType":"uint256"}],"stateMutability":"view"},{"type":"function","name":"decimals","inputs":[],"outputs":[{"name":"","type":"uint8","internalType":"uint8"}],"stateMutability":"view"},{"type":"function","name":"mint","inputs":[{"name":"_to","type":"address","internalType":"address"},{"name":"_amount","type":"uint256","internalType":"uint256"}],"outputs":[],"stateMutability":"nonpayable"},{"type":"function","name":"minters","inputs":[{"name":"","type":"address","internalType":"address"}],"outputs":[{"name":"","type":"bool","internalType":"bool"}],"stateMutability":"view"},{"type":"function","name":"name","inputs":[],"outputs":[{"name":"","type":"string","internalType":"string"}],"stateMutability":"view"},{"type":"function","name":"owner","inputs":[],"outputs":[{"name":"","type":"address","internalType":"address"}],"stateMutability":"view"},{"type":"function","name":"removeMinter","inputs":[{"name":"_minter","type":"address","internalType":"address"}],"outputs":[],"stateMutability":"nonpayable"},{"type":"function","name":"renounceOwnership","inputs":[],"outputs":[],"stateMutability":"nonpayable"},{"type":"function","name":"symbol","inputs":[],"outputs":[{"name":"","type":"string","internalType":"string"}],"stateMutability":"view"},{"type":"function","name":"totalSupply","inputs":[],"outputs":[{"name":"","type":"uint256","internalType":"uint256"}],"stateMutability":"view"},{"type":"function","name":"transfer","inputs":[{"name":"to","type":"address","internalType":"address"},{"name":"value","type":"uint256","internalType":"uint256"}],"outputs":[{"name":"","type":"bool","internalType":"bool"}],"stateMutability":"nonpayable"},{"type":"function","name":"transferFrom","inputs":[{"name":"from","type":"address","internalType":"address"},{"name":"to","type":"address","internalType":"address"},{"name":"value","type":"uint256","internalType":"uint256"}],"outputs":[{"name":"","type":"bool","internalType":"bool"}],"stateMutability":"nonpayable"},{"type":"function","name":"transferOwnership","inputs":[{"name":"_newOwner","type":"address","internalType":"address"}],"outputs":[],"stateMutability":"nonpayable"},{"type":"event","name":"Approval","inputs":[{"name":"owner","type":"address","indexed":true,"internalType":"address"},{"name":"spender","type":"address","indexed":true,"internalType":"address"},{"name":"value","type":"uint256","indexed":false,"internalType":"uint256"}],"anonymous":false},{"type":"event","name":"MinterAdded","inputs":[{"name":"minter","type":"address","indexed":true,"internalType":"address"}],"anonymous":false},{"type":"event","name":"MinterRemoved","inputs":[{"name":"minter","type":"address","indexed":true,"internalType":"address"}],"anonymous":false},{"type":"event","name":"OwnershipTransferred","inputs":[{"name":"previousOwner","type":"address","indexed":true,"internalType":"address"},{"name":"newOwner","type":"address","indexed":true,"internalType":"address"}],"anonymous":false},{"type":"event","name":"Transfer","inputs":[{"name":"from","type":"address","indexed":true,"internalType":"address"},{"name":"to","type":"address","indexed":true,"internalType":"address"},{"name":"value","type":"uint256","indexed":false,"internalType":"uint256"}],"anonymous":false},{"type":"error","name":"ERC20InsufficientAllowance","inputs":[{"name":"spender","type":"address","internalType":"address"},{"name":"allowance","type":"uint256","internalType":"uint256"},{"name":"needed","type":"uint256","internalType":"uint256"}]},{"type":"error","name":"ERC20InsufficientBalance","inputs":[{"name":"sender","type":"address","internalType":"address"},{"name":"balance","type":"uint256","internalType":"uint256"},{"name":"needed","type":"uint256","internalType":"uint256"}]},{"type":"error","name":"ERC20InvalidApprover","inputs":[{"name":"approver","type":"address","internalType":"address"}]},{"type":"error","name":"ERC20InvalidReceiver","inputs":[{"name":"receiver","type":"address","internalType":"address"}]},{"type":"error","name":"ERC20InvalidSender","inputs":[{"name":"sender","type":"address","internalType":"address"}]},{"type":"error","name":"ERC20InvalidSpender","inputs":[{"name":"spender","type":"address","internalType":"address"}]},{"type":"error","name":"NotMinter","inputs":[{"name":"caller","type":"address","internalType":"address"}]},{"type":"error","name":"OwnableInvalidOwner","inputs":[{"name":"owner","type":"address","internalType":"address"}]},{"type":"error","name":"OwnableUnauthorizedAccount","inputs":[{"name":"account","type":"address","internalType":"address"}]}],"bytecode":{"object":"0x608060405234801561000f575f5ffd5b50604051611ba3380380611ba383398181016040528101906100319190610431565b808484816003908161004391906106dd565b50806004908161005391906106dd565b5050505f73ffffffffffffffffffffffffffffffffffffffff168173ffffffffffffffffffffffffffffffffffffffff16036100c6575f6040517f1e4fbdf70000000000000000000000000000000000000000000000000000000081526004016100bd91906107bb565b60405180910390fd5b6100d58161019160201b60201c565b508160075f6101000a81548160ff021916908360ff160217905550600160065f8373ffffffffffffffffffffffffffffffffffffffff1673ffffffffffffffffffffffffffffffffffffffff1681526020019081526020015f205f6101000a81548160ff0219169083151502179055508073ffffffffffffffffffffffffffffffffffffffff167f6ae172837ea30b801fbfcdd4108aa1d5bf8ff775444fd70256b44e6bf3dfc3f660405160405180910390a2505050506107d4565b5f60055f9054906101000a900473ffffffffffffffffffffffffffffffffffffffff1690508160055f6101000a81548173ffffffffffffffffffffffffffffffffffffffff021916908373ffffffffffffffffffffffffffffffffffffffff1602179055508173ffffffffffffffffffffffffffffffffffffffff168173ffffffffffffffffffffffffffffffffffffffff167f8be0079c531659141344cd1fd0a4f28419497f9722a3daafe3b4186f6b6457e060405160405180910390a35050565b5f604051905090565b5f5ffd5b5f5ffd5b5f5ffd5b5f5ffd5b5f601f19601f8301169050919050565b7f4e487b71000000000000000000000000000000000000000000000000000000005f52604160045260245ffd5b6102b38261026d565b810181811067ffffffffffffffff821117156102d2576102d161027d565b5b80604052505050565b5f6102e4610254565b90506102f082826102aa565b919050565b5f67ffffffffffffffff82111561030f5761030e61027d565b5b6103188261026d565b9050602081019050919050565b8281835e5f83830152505050565b5f610345610340846102f5565b6102db565b90508281526020810184848401111561036157610360610269565b5b61036c848285610325565b509392505050565b5f82601f83011261038857610387610265565b5b8151610398848260208601610333565b91505092915050565b5f60ff82169050919050565b6103b6816103a1565b81146103c0575f5ffd5b50565b5f815190506103d1816103ad565b92915050565b5f73ffffffffffffffffffffffffffffffffffffffff82169050919050565b5f610400826103d7565b9050919050565b610410816103f6565b811461041a575f5ffd5b50565b5f8151905061042b81610407565b92915050565b5f5f5f5f608085870312156104495761044861025d565b5b5f85015167ffffffffffffffff81111561046657610465610261565b5b61047287828801610374565b945050602085015167ffffffffffffffff81111561049357610492610261565b5b61049f87828801610374565b93505060406104b0878288016103c3565b92505060606104c18782880161041d565b91505092959194509250565b5f81519050919050565b7f4e487b71000000000000000000000000000000000000000000000000000000005f52602260045260245ffd5b5f600282049050600182168061051b57607f821691505b60208210810361052e5761052d6104d7565b5b50919050565b5f819050815f5260205f209050919050565b5f6020601f8301049050919050565b5f82821b905092915050565b5f600883026105907fffffffffffffffffffffffffffffffffffffffffffffffffffffffffffffffff82610555565b61059a8683610555565b95508019841693508086168417925050509392505050565b5f819050919050565b5f819050919050565b5f6105de6105d96105d4846105b2565b6105bb565b6105b2565b9050919050565b5f819050919050565b6105f7836105c4565b61060b610603826105e5565b848454610561565b825550505050565b5f5f905090565b610622610613565b61062d8184846105ee565b505050565b5b81811015610650576106455f8261061a565b600181019050610633565b5050565b601f8211156106955761066681610534565b61066f84610546565b8101602085101561067e578190505b61069261068a85610546565b830182610632565b50505b505050565b5f82821c905092915050565b5f6106b55f198460080261069a565b1980831691505092915050565b5f6106cd83836106a6565b9150826002028217905092915050565b6106e6826104cd565b67ffffffffffffffff8111156106ff576106fe61027d565b5b6107098254610504565b610714828285610654565b5f60209050601f831160018114610745575f8415610733578287015190505b61073d85826106c2565b8655506107a4565b601f19841661075386610534565b5f5b8281101561077a57848901518255600182019150602085019450602081019050610755565b868310156107975784890151610793601f8916826106a6565b8355505b6001600288020188555050505b505050505050565b6107b5816103f6565b82525050565b5f6020820190506107ce5f8301846107ac565b92915050565b6113c2806107e15f395ff3fe608060405234801561000f575f5ffd5b50600436106100fe575f3560e01c8063715018a611610095578063a9059cbb11610064578063a9059cbb14610286578063dd62ed3e146102b6578063f2fde38b146102e6578063f46eccc414610302576100fe565b8063715018a6146102245780638da5cb5b1461022e57806395d89b411461024c578063983b2d561461026a576100fe565b80633092afd5116100d15780633092afd51461019e578063313ce567146101ba57806340c10f19146101d857806370a08231146101f4576100fe565b806306fdde0314610102578063095ea7b31461012057806318160ddd1461015057806323b872dd1461016e575b5f5ffd5b61010a610332565b604051610117919061103b565b60405180910390f35b61013a600480360381019061013591906110ec565b6103c2565b6040516101479190611144565b60405180910390f35b6101586103e4565b604051610165919061116c565b60405180910390f35b61018860048036038101906101839190611185565b6103ed565b6040516101959190611144565b60405180910390f35b6101b860048036038101906101b391906111d5565b61041b565b005b6101c26104bd565b6040516101cf919061121b565b60405180910390f35b6101f260048036038101906101ed91906110ec565b6104d2565b005b61020e600480360381019061020991906111d5565b61056d565b60405161021b919061116c565b60405180910390f35b61022c6105b2565b005b6102366105c5565b6040516102439190611243565b60405180910390f35b6102546105ed565b604051610261919061103b565b60405180910390f35b610284600480360381019061027f91906111d5565b61067d565b005b6102a0600480360381019061029b91906110ec565b610720565b6040516102ad9190611144565b60405180910390f35b6102d060048036038101906102cb919061125c565b610742565b6040516102dd919061116c565b60405180910390f35b61030060048036038101906102fb91906111d5565b6107c4565b005b61031c600480360381019061031791906111d5565b610861565b6040516103299190611144565b60405180910390f35b606060038054610341906112c7565b80601f016020809104026020016040519081016040528092919081815260200182805461036d906112c7565b80156103b85780601f1061038f576101008083540402835291602001916103b8565b820191905f5260205f20905b81548152906001019060200180831161039b57829003601f168201915b5050505050905090565b5f5f6103cc61087e565b90506103d9818585610885565b600191505092915050565b5f600254905090565b5f5f6103f761087e565b9050610404858285610897565b61040f85858561092a565b60019150509392505050565b610423610a1a565b5f60065f8373ffffffffffffffffffffffffffffffffffffffff1673ffffffffffffffffffffffffffffffffffffffff1681526020019081526020015f205f6101000a81548160ff0219169083151502179055508073ffffffffffffffffffffffffffffffffffffffff167fe94479a9f7e1952cc78f2d6baab678adc1b772d936c6583def489e524cb6669260405160405180910390a250565b5f60075f9054906101000a900460ff16905090565b60065f3373ffffffffffffffffffffffffffffffffffffffff1673ffffffffffffffffffffffffffffffffffffffff1681526020019081526020015f205f9054906101000a900460ff16339061055e576040517f361c31f20000000000000000000000000000000000000000000000000000000081526004016105559190611243565b60405180910390fd5b506105698282610aa1565b5050565b5f5f5f8373ffffffffffffffffffffffffffffffffffffffff1673ffffffffffffffffffffffffffffffffffffffff1681526020019081526020015f20549050919050565b6105ba610a1a565b6105c35f610b20565b565b5f60055f9054906101000a900473ffffffffffffffffffffffffffffffffffffffff16905090565b6060600480546105fc906112c7565b80601f0160208091040260200160405190810160405280929190818152602001828054610628906112c7565b80156106735780601f1061064a57610100808354040283529160200191610673565b820191905f5260205f20905b81548152906001019060200180831161065657829003601f168201915b5050505050905090565b610685610a1a565b600160065f8373ffffffffffffffffffffffffffffffffffffffff1673ffffffffffffffffffffffffffffffffffffffff1681526020019081526020015f205f6101000a81548160ff0219169083151502179055508073ffffffffffffffffffffffffffffffffffffffff167f6ae172837ea30b801fbfcdd4108aa1d5bf8ff775444fd70256b44e6bf3dfc3f660405160405180910390a250565b5f5f61072a61087e565b905061073781858561092a565b600191505092915050565b5f60015f8473ffffffffffffffffffffffffffffffffffffffff1673ffffffffffffffffffffffffffffffffffffffff1681526020019081526020015f205f8373ffffffffffffffffffffffffffffffffffffffff1673ffffffffffffffffffffffffffffffffffffffff1681526020019081526020015f2054905092915050565b6107cc610a1a565b5f73ffffffffffffffffffffffffffffffffffffffff168173ffffffffffffffffffffffffffffffffffffffff160361083c575f6040517f1e4fbdf70000000000000000000000000000000000000000000000000000000081526004016108339190611243565b60405180910390fd5b61084c6108476105c5565b61041b565b6108558161067d565b61085e81610b20565b50565b6006602052805f5260405f205f915054906101000a900460ff1681565b5f33905090565b6108928383836001610be3565b505050565b5f6108a28484610742565b90507fffffffffffffffffffffffffffffffffffffffffffffffffffffffffffffffff8110156109245781811015610915578281836040517ffb8f41b200000000000000000000000000000000000000000000000000000000815260040161090c939291906112f7565b60405180910390fd5b61092384848484035f610be3565b5b50505050565b5f73ffffffffffffffffffffffffffffffffffffffff168373ffffffffffffffffffffffffffffffffffffffff160361099a575f6040517f96c6fd1e0000000000000000000000000000000000000000000000000000000081526004016109919190611243565b60405180910390fd5b5f73ffffffffffffffffffffffffffffffffffffffff168273ffffffffffffffffffffffffffffffffffffffff1603610a0a575f6040517fec442f05000000000000000000000000000000000000000000000000000000008152600401610a019190611243565b60405180910390fd5b610a15838383610db2565b505050565b610a2261087e565b73ffffffffffffffffffffffffffffffffffffffff16610a406105c5565b73ffffffffffffffffffffffffffffffffffffffff1614610a9f57610a6361087e565b6040517f118cdaa7000000000000000000000000000000000000000000000000000000008152600401610a969190611243565b60405180910390fd5b565b5f73ffffffffffffffffffffffffffffffffffffffff168273ffffffffffffffffffffffffffffffffffffffff1603610b11575f6040517fec442f05000000000000000000000000000000000000000000000000000000008152600401610b089190611243565b60405180910390fd5b610b1c5f8383610db2565b5050565b5f60055f9054906101000a900473ffffffffffffffffffffffffffffffffffffffff1690508160055f6101000a81548173ffffffffffffffffffffffffffffffffffffffff021916908373ffffffffffffffffffffffffffffffffffffffff1602179055508173ffffffffffffffffffffffffffffffffffffffff168173ffffffffffffffffffffffffffffffffffffffff167f8be0079c531659141344cd1fd0a4f28419497f9722a3daafe3b4186f6b6457e060405160405180910390a35050565b5f73ffffffffffffffffffffffffffffffffffffffff168473ffffffffffffffffffffffffffffffffffffffff1603610c53575f6040517fe602df05000000000000000000000000000000000000000000000000000000008152600401610c4a9190611243565b60405180910390fd5b5f73ffffffffffffffffffffffffffffffffffffffff168373ffffffffffffffffffffffffffffffffffffffff1603610cc3575f6040517f94280d62000000000000000000000000000000000000000000000000000000008152600401610cba9190611243565b60405180910390fd5b8160015f8673ffffffffffffffffffffffffffffffffffffffff1673ffffffffffffffffffffffffffffffffffffffff1681526020019081526020015f205f8573ffffffffffffffffffffffffffffffffffffffff1673ffffffffffffffffffffffffffffffffffffffff1681526020019081526020015f20819055508015610dac578273ffffffffffffffffffffffffffffffffffffffff168473ffffffffffffffffffffffffffffffffffffffff167f8c5be1e5ebec7d5bd14f71427d1e84f3dd0314c0f7b2291e5b200ac8c7c3b92584604051610da3919061116c565b60405180910390a35b50505050565b5f73ffffffffffffffffffffffffffffffffffffffff168373ffffffffffffffffffffffffffffffffffffffff1603610e02578060025f828254610df69190611359565b92505081905550610ed0565b5f5f5f8573ffffffffffffffffffffffffffffffffffffffff1673ffffffffffffffffffffffffffffffffffffffff1681526020019081526020015f2054905081811015610e8b578381836040517fe450d38c000000000000000000000000000000000000000000000000000000008152600401610e82939291906112f7565b60405180910390fd5b8181035f5f8673ffffffffffffffffffffffffffffffffffffffff1673ffffffffffffffffffffffffffffffffffffffff1681526020019081526020015f2081905550505b5f73ffffffffffffffffffffffffffffffffffffffff168273ffffffffffffffffffffffffffffffffffffffff1603610f17578060025f8282540392505081905550610f61565b805f5f8473ffffffffffffffffffffffffffffffffffffffff1673ffffffffffffffffffffffffffffffffffffffff1681526020019081526020015f205f82825401925050819055505b8173ffffffffffffffffffffffffffffffffffffffff168373ffffffffffffffffffffffffffffffffffffffff167fddf252ad1be2c89b69c2b068fc378daa952ba7f163c4a11628f55a4df523b3ef83604051610fbe919061116c565b60405180910390a3505050565b5f81519050919050565b5f82825260208201905092915050565b8281835e5f83830152505050565b5f601f19601f8301169050919050565b5f61100d82610fcb565b6110178185610fd5565b9350611027818560208601610fe5565b61103081610ff3565b840191505092915050565b5f6020820190508181035f8301526110538184611003565b905092915050565b5f5ffd5b5f73ffffffffffffffffffffffffffffffffffffffff82169050919050565b5f6110888261105f565b9050919050565b6110988161107e565b81146110a2575f5ffd5b50565b5f813590506110b38161108f565b92915050565b5f819050919050565b6110cb816110b9565b81146110d5575f5ffd5b50565b5f813590506110e6816110c2565b92915050565b5f5f604083850312156111025761110161105b565b5b5f61110f858286016110a5565b9250506020611120858286016110d8565b9150509250929050565b5f8115159050919050565b61113e8161112a565b82525050565b5f6020820190506111575f830184611135565b92915050565b611166816110b9565b82525050565b5f60208201905061117f5f83018461115d565b92915050565b5f5f5f6060848603121561119c5761119b61105b565b5b5f6111a9868287016110a5565b93505060206111ba868287016110a5565b92505060406111cb868287016110d8565b9150509250925092565b5f602082840312156111ea576111e961105b565b5b5f6111f7848285016110a5565b91505092915050565b5f60ff82169050919050565b61121581611200565b82525050565b5f60208201905061122e5f83018461120c565b92915050565b61123d8161107e565b82525050565b5f6020820190506112565f830184611234565b92915050565b5f5f604083850312156112725761127161105b565b5b5f61127f858286016110a5565b9250506020611290858286016110a5565b9150509250929050565b7f4e487b71000000000000000000000000000000000000000000000000000000005f52602260045260245ffd5b5f60028204905060018216806112de57607f821691505b6020821081036112f1576112f061129a565b5b50919050565b5f60608201905061130a5f830186611234565b611317602083018561115d565b611324604083018461115d565b949350505050565b7f4e487b71000000000000000000000000000000000000000000000000000000005f52601160045260245ffd5b5f611363826110b9565b915061136e836110b9565b92508282019050808211156113865761138561132c565b5b9291505056fea2646970667358221220c55ebd9830b1f877310ea45a2da42706f2949a7f8ffcf11885e9e1378ce3b3ec64736f6c634300081c0033","linkReferences":{}},"methodIdentifiers":{"addMinter(address)":"983b2d56","allowance(address,address)":"dd62ed3e","approve(address,uint256)":"095ea7b3","balanceOf(address)":"70a08231","decimals()":"313ce567","mint(address,uint256)":"40c10f19","minters(address)":"f46eccc4","name()":"06fdde03","owner()":"8da5cb5b","removeMinter(address)":"3092afd5","renounceOwnership()":"715018a6","symbol()":"95d89b41","totalSupply()":"18160ddd","transfer(address,uint256)":"a9059cbb","transferFrom(address,address,uint256)":"23b872dd","transferOwnership(address)":"f2fde38b"},"id":53}