{"abi":[{"type":"constructor","inputs":[],"stateMutability":"nonpayable"},{"type":"function","name":"approve","inputs":[{"name":"to","type":"address","internalType":"address"},{"name":"tokenId","type":"uint256","internalType":"uint256"}],"outputs":[],"stateMutability":"nonpayable"},{"type":"function","name":"balanceOf","inputs":[{"name":"owner","type":"address","internalType":"address"}],"outputs":[{"name":"","type":"uint256","internalType":"uint256"}],"stateMutability":"view"},{"type":"function","name":"getApproved","inputs":[{"name":"tokenId","type":"uint256","internalType":"uint256"}],"outputs":[{"name":"","type":"address","internalType":"address"}],"stateMutability":"view"},{"type":"function","name":"hasSBT","inputs":[{"name":"","type":"address","internalType":"address"}],"outputs":[{"name":"","type":"bool","internalType":"bool"}],"stateMutability":"view"},{"type":"function","name":"hasSoulboundToken","inputs":[{"name":"account","type":"address","internalType":"address"}],"outputs":[{"name":"","type":"bool","internalType":"bool"}],"stateMutability":"view"},{"type":"function","name":"isApprovedForAll","inputs":[{"name":"owner","type":"address","internalType":"address"},{"name":"operator","type":"address","internalType":"address"}],"outputs":[{"name":"","type":"bool","internalType":"bool"}],"stateMutability":"view"},{"type":"function","name":"mint","inputs":[],"outputs":[],"stateMutability":"nonpayable"},{"type":"function","name":"name","inputs":[],"outputs":[{"name":"","type":"string","internalType":"string"}],"stateMutability":"view"},{"type":"function","name":"owner","inputs":[],"outputs":[{"name":"","type":"address","internalType":"address"}],"stateMutability":"view"},{"type":"function","name":"ownerOf","inputs":[{"name":"tokenId","type":"uint256","internalType":"uint256"}],"outputs":[{"name":"","type":"address","internalType":"address"}],"stateMutability":"view"},{"type":"function","name":"renounceOwnership","inputs":[],"outputs":[],"stateMutability":"nonpayable"},{"type":"function","name":"safeTransferFrom","inputs":[{"name":"from","type":"address","internalType":"address"},{"name":"to","type":"address","internalType":"address"},{"name":"tokenId","type":"uint256","internalType":"uint256"}],"outputs":[],"stateMutability":"nonpayable"},{"type":"function","name":"safeTransferFrom","inputs":[{"name":"from","type":"address","internalType":"address"},{"name":"to","type":"address","internalType":"address"},{"name":"tokenId","type":"uint256","internalType":"uint256"},{"name":"data","type":"bytes","internalType":"bytes"}],"outputs":[],"stateMutability":"nonpayable"},{"type":"function","name":"setApprovalForAll","inputs":[{"name":"operator","type":"address","internalType":"address"},{"name":"approved","type":"bool","internalType":"bool"}],"outputs":[],"stateMutability":"nonpayable"},{"type":"function","name":"supportsInterface","inputs":[{"name":"interfaceId","type":"bytes4","internalType":"bytes4"}],"outputs":[{"name":"","type":"bool","internalType":"bool"}],"stateMutability":"view"},{"type":"function","name":"symbol","inputs":[],"outputs":[{"name":"","type":"string","internalType":"string"}],"stateMutability":"view"},{"type":"function","name":"tokenURI","inputs":[{"name":"tokenId","type":"uint256","internalType":"uint256"}],"outputs":[{"name":"","type":"string","internalType":"string"}],"stateMutability":"view"},{"type":"function","name":"transferFrom","inputs":[{"name":"from","type":"address","internalType":"address"},{"name":"to","type":"address","internalType":"address"},{"name":"tokenId","type":"uint256","internalType":"uint256"}],"outputs":[],"stateMutability":"nonpayable"},{"type":"function","name":"transferOwnership","inputs":[{"name":"newOwner","type":"address","internalType":"address"}],"outputs":[],"stateMutability":"nonpayable"},{"type":"event","name":"Approval","inputs":[{"name":"owner","type":"address","indexed":true,"internalType":"address"},{"name":"approved","type":"address","indexed":true,"internalType":"address"},{"name":"tokenId","type":"uint256","indexed":true,"internalType":"uint256"}],"anonymous":false},{"type":"event","name":"ApprovalForAll","inputs":[{"name":"owner","type":"address","indexed":true,"internalType":"address"},{"name":"operator","type":"address","indexed":true,"internalType":"address"},{"name":"approved","type":"bool","indexed":false,"internalType":"bool"}],"anonymous":false},{"type":"event","name":"OwnershipTransferred","inputs":[{"name":"previousOwner","type":"address","indexed":true,"internalType":"address"},{"name":"newOwner","type":"address","indexed":true,"internalType":"address"}],"anonymous":false},{"type":"event","name":"Transfer","inputs":[{"name":"from","type":"address","indexed":true,"internalType":"address"},{"name":"to","type":"address","indexed":true,"internalType":"address"},{"name":"tokenId","type":"uint256","indexed":true,"internalType":"uint256"}],"anonymous":false},{"type":"error","name":"ERC721IncorrectOwner","inputs":[{"name":"sender","type":"address","internalType":"address"},{"name":"tokenId","type":"uint256","internalType":"uint256"},{"name":"owner","type":"address","internalType":"address"}]},{"type":"error","name":"ERC721InsufficientApproval","inputs":[{"name":"operator","type":"address","internalType":"address"},{"name":"tokenId","type":"uint256","internalType":"uint256"}]},{"type":"error","name":"ERC721InvalidApprover","inputs":[{"name":"approver","type":"address","internalType":"address"}]},{"type":"error","name":"ERC721InvalidOperator","inputs":[{"name":"operator","type":"address","internalType":"address"}]},{"type":"error","name":"ERC721InvalidOwner","inputs":[{"name":"owner","type":"address","internalType":"address"}]},{"type":"error","name":"ERC721InvalidReceiver","inputs":[{"name":"receiver","type":"address","internalType":"address"}]},{"type":"error","name":"ERC721InvalidSender","inputs":[{"name":"sender","type":"address","internalType":"address"}]},{"type":"error","name":"ERC721NonexistentToken","inputs":[{"name":"tokenId","type":"uint256","internalType":"uint256"}]},{"type":"error","name":"OwnableInvalidOwner","inputs":[{"name":"owner","type":"address","internalType":"address"}]},{"type":"error","name":"OwnableUnauthorizedAccount","inputs":[{"name":"account","type":"address","internalType":"address"}]}],"bytecode":{"object":"0x608060405234801561000f575f5ffd5b50336040518060400160405280600a81526020017f506f7274616c20534254000000000000000000000000000000000000000000008152506040518060400160405280600481526020017f5053425400000000000000000000000000000000000000000000000000000000815250815f908161008b9190610423565b50806001908161009b9190610423565b5050505f73ffffffffffffffffffffffffffffffffffffffff168173ffffffffffffffffffffffffffffffffffffffff160361010e575f6040517f1e4fbdf70000000000000000000000000000000000000000000000000000000081526004016101059190610531565b60405180910390fd5b61011d8161012360201b60201c565b5061054a565b5f60065f9054906101000a900473ffffffffffffffffffffffffffffffffffffffff1690508160065f6101000a81548173ffffffffffffffffffffffffffffffffffffffff021916908373ffffffffffffffffffffffffffffffffffffffff1602179055508173ffffffffffffffffffffffffffffffffffffffff168173ffffffffffffffffffffffffffffffffffffffff167f8be0079c531659141344cd1fd0a4f28419497f9722a3daafe3b4186f6b6457e060405160405180910390a35050565b5f81519050919050565b7f4e487b71000000000000000000000000000000000000000000000000000000005f52604160045260245ffd5b7f4e487b71000000000000000000000000000000000000000000000000000000005f52602260045260245ffd5b5f600282049050600182168061026157607f821691505b6020821081036102745761027361021d565b5b50919050565b5f819050815f5260205f209050919050565b5f6020601f8301049050919050565b5f82821b905092915050565b5f600883026102d67fffffffffffffffffffffffffffffffffffffffffffffffffffffffffffffffff8261029b565b6102e0868361029b565b95508019841693508086168417925050509392505050565b5f819050919050565b5f819050919050565b5f61032461031f61031a846102f8565b610301565b6102f8565b9050919050565b5f819050919050565b61033d8361030a565b6103516103498261032b565b8484546102a7565b825550505050565b5f5f905090565b610368610359565b610373818484610334565b505050565b5b818110156103965761038b5f82610360565b600181019050610379565b5050565b601f8211156103db576103ac8161027a565b6103b58461028c565b810160208510156103c4578190505b6103d86103d08561028c565b830182610378565b50505b505050565b5f82821c905092915050565b5f6103fb5f19846008026103e0565b1980831691505092915050565b5f61041383836103ec565b9150826002028217905092915050565b61042c826101e6565b67ffffffffffffffff811115610445576104446101f0565b5b61044f825461024a565b61045a82828561039a565b5f60209050601f83116001811461048b575f8415610479578287015190505b6104838582610408565b8655506104ea565b601f1984166104998661027a565b5f5b828110156104c05784890151825560018201915060208501945060208101905061049b565b868310156104dd57848901516104d9601f8916826103ec565b8355505b6001600288020188555050505b505050505050565b5f73ffffffffffffffffffffffffffffffffffffffff82169050919050565b5f61051b826104f2565b9050919050565b61052b81610511565b82525050565b5f6020820190506105445f830184610522565b92915050565b612384806105575f395ff3fe608060405234801561000f575f5ffd5b506004361061011f575f3560e01c806370a08231116100ab578063a22cb4651161006f578063a22cb46514610305578063b88d4fde14610321578063c87b56dd1461033d578063e985e9c51461036d578063f2fde38b1461039d5761011f565b806370a082311461025f578063715018a61461028f578063889d77b8146102995780638da5cb5b146102c957806395d89b41146102e75761011f565b80631249c58b116100f25780631249c58b146101bd57806323b872dd146101c757806342842e0e146101e357806356a9c454146101ff5780636352211e1461022f5761011f565b806301ffc9a71461012357806306fdde0314610153578063081812fc14610171578063095ea7b3146101a1575b5f5ffd5b61013d60048036038101906101389190611aeb565b6103b9565b60405161014a9190611b30565b60405180910390f35b61015b61049a565b6040516101689190611bb9565b60405180910390f35b61018b60048036038101906101869190611c0c565b610529565b6040516101989190611c76565b60405180910390f35b6101bb60048036038101906101b69190611cb9565b610544565b005b6101c561055a565b005b6101e160048036038101906101dc9190611cf7565b610663565b005b6101fd60048036038101906101f89190611cf7565b610762565b005b61021960048036038101906102149190611d47565b610781565b6040516102269190611b30565b60405180910390f35b61024960048036038101906102449190611c0c565b61079e565b6040516102569190611c76565b60405180910390f35b61027960048036038101906102749190611d47565b6107af565b6040516102869190611d81565b60405180910390f35b610297610865565b005b6102b360048036038101906102ae9190611d47565b610878565b6040516102c09190611b30565b60405180910390f35b6102d16108ca565b6040516102de9190611c76565b60405180910390f35b6102ef6108f2565b6040516102fc9190611bb9565b60405180910390f35b61031f600480360381019061031a9190611dc4565b610982565b005b61033b60048036038101906103369190611f2e565b610998565b005b61035760048036038101906103529190611c0c565b6109bd565b6040516103649190611bb9565b60405180910390f35b61038760048036038101906103829190611fae565b610a23565b6040516103949190611b30565b60405180910390f35b6103b760048036038101906103b29190611d47565b610ab1565b005b5f7f80ac58cd000000000000000000000000000000000000000000000000000000007bffffffffffffffffffffffffffffffffffffffffffffffffffffffff1916827bffffffffffffffffffffffffffffffffffffffffffffffffffffffff1916148061048357507f5b5e139f000000000000000000000000000000000000000000000000000000007bffffffffffffffffffffffffffffffffffffffffffffffffffffffff1916827bffffffffffffffffffffffffffffffffffffffffffffffffffffffff1916145b80610493575061049282610b35565b5b9050919050565b60605f80546104a890612019565b80601f01602080910402602001604051908101604052809291908181526020018280546104d490612019565b801561051f5780601f106104f65761010080835404028352916020019161051f565b820191905f5260205f20905b81548152906001019060200180831161050257829003601f168201915b5050505050905090565b5f61053382610b9e565b5061053d82610c24565b9050919050565b6105568282610551610c5d565b610c64565b5050565b60075f3373ffffffffffffffffffffffffffffffffffffffff1673ffffffffffffffffffffffffffffffffffffffff1681526020019081526020015f205f9054906101000a900460ff16156105e4576040517f08c379a00000000000000000000000000000000000000000000000000000000081526004016105db90612093565b60405180910390fd5b5f600854905060085f8154809291906105fc906120de565b919050555061060b3382610c76565b600160075f3373ffffffffffffffffffffffffffffffffffffffff1673ffffffffffffffffffffffffffffffffffffffff1681526020019081526020015f205f6101000a81548160ff02191690831515021790555050565b5f73ffffffffffffffffffffffffffffffffffffffff168273ffffffffffffffffffffffffffffffffffffffff16036106d3575f6040517f64a0ae920000000000000000000000000000000000000000000000000000000081526004016106ca9190611c76565b60405180910390fd5b5f6106e683836106e1610c5d565b610c93565b90508373ffffffffffffffffffffffffffffffffffffffff168173ffffffffffffffffffffffffffffffffffffffff161461075c578382826040517f64283d7b00000000000000000000000000000000000000000000000000000000815260040161075393929190612125565b60405180910390fd5b50505050565b61077c83838360405180602001604052805f815250610998565b505050565b6007602052805f5260405f205f915054906101000a900460ff1681565b5f6107a882610b9e565b9050919050565b5f5f73ffffffffffffffffffffffffffffffffffffffff168273ffffffffffffffffffffffffffffffffffffffff1603610820575f6040517f89c62b640000000000000000000000000000000000000000000000000000000081526004016108179190611c76565b60405180910390fd5b60035f8373ffffffffffffffffffffffffffffffffffffffff1673ffffffffffffffffffffffffffffffffffffffff1681526020019081526020015f20549050919050565b61086d610d59565b6108765f610de0565b565b5f60075f8373ffffffffffffffffffffffffffffffffffffffff1673ffffffffffffffffffffffffffffffffffffffff1681526020019081526020015f205f9054906101000a900460ff169050919050565b5f60065f9054906101000a900473ffffffffffffffffffffffffffffffffffffffff16905090565b60606001805461090190612019565b80601f016020809104026020016040519081016040528092919081815260200182805461092d90612019565b80156109785780601f1061094f57610100808354040283529160200191610978565b820191905f5260205f20905b81548152906001019060200180831161095b57829003601f168201915b5050505050905090565b61099461098d610c5d565b8383610ea3565b5050565b6109a3848484610663565b6109b76109ae610c5d565b8585858561100c565b50505050565b60606109c882610b9e565b505f6109d26111b8565b90505f8151116109f05760405180602001604052805f815250610a1b565b806109fa846111ce565b604051602001610a0b929190612194565b6040516020818303038152906040525b915050919050565b5f60055f8473ffffffffffffffffffffffffffffffffffffffff1673ffffffffffffffffffffffffffffffffffffffff1681526020019081526020015f205f8373ffffffffffffffffffffffffffffffffffffffff1673ffffffffffffffffffffffffffffffffffffffff1681526020019081526020015f205f9054906101000a900460ff16905092915050565b610ab9610d59565b5f73ffffffffffffffffffffffffffffffffffffffff168173ffffffffffffffffffffffffffffffffffffffff1603610b29575f6040517f1e4fbdf7000000000000000000000000000000000000000000000000000000008152600401610b209190611c76565b60405180910390fd5b610b3281610de0565b50565b5f7f01ffc9a7000000000000000000000000000000000000000000000000000000007bffffffffffffffffffffffffffffffffffffffffffffffffffffffff1916827bffffffffffffffffffffffffffffffffffffffffffffffffffffffff1916149050919050565b5f5f610ba983611298565b90505f73ffffffffffffffffffffffffffffffffffffffff168173ffffffffffffffffffffffffffffffffffffffff1603610c1b57826040517f7e273289000000000000000000000000000000000000000000000000000000008152600401610c129190611d81565b60405180910390fd5b80915050919050565b5f60045f8381526020019081526020015f205f9054906101000a900473ffffffffffffffffffffffffffffffffffffffff169050919050565b5f33905090565b610c7183838360016112d1565b505050565b610c8f828260405180602001604052805f815250611490565b5050565b5f5f610c9e84611298565b90505f73ffffffffffffffffffffffffffffffffffffffff168173ffffffffffffffffffffffffffffffffffffffff161480610d0557505f73ffffffffffffffffffffffffffffffffffffffff168573ffffffffffffffffffffffffffffffffffffffff16145b610d44576040517f08c379a0000000000000000000000000000000000000000000000000000000008152600401610d3b90612201565b60405180910390fd5b610d4f8585856114b3565b9150509392505050565b610d61610c5d565b73ffffffffffffffffffffffffffffffffffffffff16610d7f6108ca565b73ffffffffffffffffffffffffffffffffffffffff1614610dde57610da2610c5d565b6040517f118cdaa7000000000000000000000000000000000000000000000000000000008152600401610dd59190611c76565b60405180910390fd5b565b5f60065f9054906101000a900473ffffffffffffffffffffffffffffffffffffffff1690508160065f6101000a81548173ffffffffffffffffffffffffffffffffffffffff021916908373ffffffffffffffffffffffffffffffffffffffff1602179055508173ffffffffffffffffffffffffffffffffffffffff168173ffffffffffffffffffffffffffffffffffffffff167f8be0079c531659141344cd1fd0a4f28419497f9722a3daafe3b4186f6b6457e060405160405180910390a35050565b5f73ffffffffffffffffffffffffffffffffffffffff168273ffffffffffffffffffffffffffffffffffffffff1603610f1357816040517f5b08ba18000000000000000000000000000000000000000000000000000000008152600401610f0a9190611c76565b60405180910390fd5b8060055f8573ffffffffffffffffffffffffffffffffffffffff1673ffffffffffffffffffffffffffffffffffffffff1681526020019081526020015f205f8473ffffffffffffffffffffffffffffffffffffffff1673ffffffffffffffffffffffffffffffffffffffff1681526020019081526020015f205f6101000a81548160ff0219169083151502179055508173ffffffffffffffffffffffffffffffffffffffff168373ffffffffffffffffffffffffffffffffffffffff167f17307eab39ab6107e8899845ad3d59bd9653f200f220920489ca2b5937696c3183604051610fff9190611b30565b60405180910390a3505050565b5f8373ffffffffffffffffffffffffffffffffffffffff163b11156111b1578273ffffffffffffffffffffffffffffffffffffffff1663150b7a02868685856040518563ffffffff1660e01b815260040161106a9493929190612271565b6020604051808303815f875af19250505080156110a557506040513d601f19601f820116820180604052508101906110a291906122cf565b60015b611126573d805f81146110d3576040519150601f19603f3d011682016040523d82523d5f602084013e6110d8565b606091505b505f81510361111e57836040517f64a0ae920000000000000000000000000000000000000000000000000000000081526004016111159190611c76565b60405180910390fd5b805181602001fd5b63150b7a0260e01b7bffffffffffffffffffffffffffffffffffffffffffffffffffffffff1916817bffffffffffffffffffffffffffffffffffffffffffffffffffffffff1916146111af57836040517f64a0ae920000000000000000000000000000000000000000000000000000000081526004016111a69190611c76565b60405180910390fd5b505b5050505050565b606060405180602001604052805f815250905090565b60605f60016111dc846116be565b0190505f8167ffffffffffffffff8111156111fa576111f9611e0a565b5b6040519080825280601f01601f19166020018201604052801561122c5781602001600182028036833780820191505090505b5090505f82602001820190505b60011561128d578080600190039150507f3031323334353637383961626364656600000000000000000000000000000000600a86061a8153600a8581611282576112816122fa565b5b0494505f8503611239575b819350505050919050565b5f60025f8381526020019081526020015f205f9054906101000a900473ffffffffffffffffffffffffffffffffffffffff169050919050565b808061130957505f73ffffffffffffffffffffffffffffffffffffffff168273ffffffffffffffffffffffffffffffffffffffff1614155b1561143b575f61131884610b9e565b90505f73ffffffffffffffffffffffffffffffffffffffff168373ffffffffffffffffffffffffffffffffffffffff161415801561138257508273ffffffffffffffffffffffffffffffffffffffff168173ffffffffffffffffffffffffffffffffffffffff1614155b801561139557506113938184610a23565b155b156113d757826040517fa9fbf51f0000000000000000000000000000000000000000000000000000000081526004016113ce9190611c76565b60405180910390fd5b811561143957838573ffffffffffffffffffffffffffffffffffffffff168273ffffffffffffffffffffffffffffffffffffffff167f8c5be1e5ebec7d5bd14f71427d1e84f3dd0314c0f7b2291e5b200ac8c7c3b92560405160405180910390a45b505b8360045f8581526020019081526020015f205f6101000a81548173ffffffffffffffffffffffffffffffffffffffff021916908373ffffffffffffffffffffffffffffffffffffffff16021790555050505050565b61149a838361180f565b6114ae6114a5610c5d565b5f85858561100c565b505050565b5f5f6114be84611298565b90505f73ffffffffffffffffffffffffffffffffffffffff168373ffffffffffffffffffffffffffffffffffffffff16146114ff576114fe818486611902565b5b5f73ffffffffffffffffffffffffffffffffffffffff168173ffffffffffffffffffffffffffffffffffffffff161461158a5761153e5f855f5f6112d1565b600160035f8373ffffffffffffffffffffffffffffffffffffffff1673ffffffffffffffffffffffffffffffffffffffff1681526020019081526020015f205f82825403925050819055505b5f73ffffffffffffffffffffffffffffffffffffffff168573ffffffffffffffffffffffffffffffffffffffff161461160957600160035f8773ffffffffffffffffffffffffffffffffffffffff1673ffffffffffffffffffffffffffffffffffffffff1681526020019081526020015f205f82825401925050819055505b8460025f8681526020019081526020015f205f6101000a81548173ffffffffffffffffffffffffffffffffffffffff021916908373ffffffffffffffffffffffffffffffffffffffff160217905550838573ffffffffffffffffffffffffffffffffffffffff168273ffffffffffffffffffffffffffffffffffffffff167fddf252ad1be2c89b69c2b068fc378daa952ba7f163c4a11628f55a4df523b3ef60405160405180910390a4809150509392505050565b5f5f5f90507a184f03e93ff9f4daa797ed6e38ed64bf6a1f010000000000000000831061171a577a184f03e93ff9f4daa797ed6e38ed64bf6a1f01000000000000000083816117105761170f6122fa565b5b0492506040810190505b6d04ee2d6d415b85acef81000000008310611757576d04ee2d6d415b85acef8100000000838161174d5761174c6122fa565b5b0492506020810190505b662386f26fc10000831061178657662386f26fc10000838161177c5761177b6122fa565b5b0492506010810190505b6305f5e10083106117af576305f5e10083816117a5576117a46122fa565b5b0492506008810190505b61271083106117d45761271083816117ca576117c96122fa565b5b0492506004810190505b606483106117f757606483816117ed576117ec6122fa565b5b0492506002810190505b600a8310611806576001810190505b80915050919050565b5f73ffffffffffffffffffffffffffffffffffffffff168273ffffffffffffffffffffffffffffffffffffffff160361187f575f6040517f64a0ae920000000000000000000000000000000000000000000000000000000081526004016118769190611c76565b60405180910390fd5b5f61188b83835f610c93565b90505f73ffffffffffffffffffffffffffffffffffffffff168173ffffffffffffffffffffffffffffffffffffffff16146118fd575f6040517f73c6ac6e0000000000000000000000000000000000000000000000000000000081526004016118f49190611c76565b60405180910390fd5b505050565b61190d8383836119c5565b6119c0575f73ffffffffffffffffffffffffffffffffffffffff168373ffffffffffffffffffffffffffffffffffffffff160361198157806040517f7e2732890000000000000000000000000000000000000000000000000000000081526004016119789190611d81565b60405180910390fd5b81816040517f177e802f0000000000000000000000000000000000000000000000000000000081526004016119b7929190612327565b60405180910390fd5b505050565b5f5f73ffffffffffffffffffffffffffffffffffffffff168373ffffffffffffffffffffffffffffffffffffffff1614158015611a7c57508273ffffffffffffffffffffffffffffffffffffffff168473ffffffffffffffffffffffffffffffffffffffff161480611a3d5750611a3c8484610a23565b5b80611a7b57508273ffffffffffffffffffffffffffffffffffffffff16611a6383610c24565b73ffffffffffffffffffffffffffffffffffffffff16145b5b90509392505050565b5f604051905090565b5f5ffd5b5f5ffd5b5f7fffffffff0000000000000000000000000000000000000000000000000000000082169050919050565b611aca81611a96565b8114611ad4575f5ffd5b50565b5f81359050611ae581611ac1565b92915050565b5f60208284031215611b0057611aff611a8e565b5b5f611b0d84828501611ad7565b91505092915050565b5f8115159050919050565b611b2a81611b16565b82525050565b5f602082019050611b435f830184611b21565b92915050565b5f81519050919050565b5f82825260208201905092915050565b8281835e5f83830152505050565b5f601f19601f8301169050919050565b5f611b8b82611b49565b611b958185611b53565b9350611ba5818560208601611b63565b611bae81611b71565b840191505092915050565b5f6020820190508181035f830152611bd18184611b81565b905092915050565b5f819050919050565b611beb81611bd9565b8114611bf5575f5ffd5b50565b5f81359050611c0681611be2565b92915050565b5f60208284031215611c2157611c20611a8e565b5b5f611c2e84828501611bf8565b91505092915050565b5f73ffffffffffffffffffffffffffffffffffffffff82169050919050565b5f611c6082611c37565b9050919050565b611c7081611c56565b82525050565b5f602082019050611c895f830184611c67565b92915050565b611c9881611c56565b8114611ca2575f5ffd5b50565b5f81359050611cb381611c8f565b92915050565b5f5f60408385031215611ccf57611cce611a8e565b5b5f611cdc85828601611ca5565b9250506020611ced85828601611bf8565b9150509250929050565b5f5f5f60608486031215611d0e57611d0d611a8e565b5b5f611d1b86828701611ca5565b9350506020611d2c86828701611ca5565b9250506040611d3d86828701611bf8565b9150509250925092565b5f60208284031215611d5c57611d5b611a8e565b5b5f611d6984828501611ca5565b91505092915050565b611d7b81611bd9565b82525050565b5f602082019050611d945f830184611d72565b92915050565b611da381611b16565b8114611dad575f5ffd5b50565b5f81359050611dbe81611d9a565b92915050565b5f5f60408385031215611dda57611dd9611a8e565b5b5f611de785828601611ca5565b9250506020611df885828601611db0565b9150509250929050565b5f5ffd5b5f5ffd5b7f4e487b71000000000000000000000000000000000000000000000000000000005f52604160045260245ffd5b611e4082611b71565b810181811067ffffffffffffffff82111715611e5f57611e5e611e0a565b5b80604052505050565b5f611e71611a85565b9050611e7d8282611e37565b919050565b5f67ffffffffffffffff821115611e9c57611e9b611e0a565b5b611ea582611b71565b9050602081019050919050565b828183375f83830152505050565b5f611ed2611ecd84611e82565b611e68565b905082815260208101848484011115611eee57611eed611e06565b5b611ef9848285611eb2565b509392505050565b5f82601f830112611f1557611f14611e02565b5b8135611f25848260208601611ec0565b91505092915050565b5f5f5f5f60808587031215611f4657611f45611a8e565b5b5f611f5387828801611ca5565b9450506020611f6487828801611ca5565b9350506040611f7587828801611bf8565b925050606085013567ffffffffffffffff811115611f9657611f95611a92565b5b611fa287828801611f01565b91505092959194509250565b5f5f60408385031215611fc457611fc3611a8e565b5b5f611fd185828601611ca5565b9250506020611fe285828601611ca5565b9150509250929050565b7f4e487b71000000000000000000000000000000000000000000000000000000005f52602260045260245ffd5b5f600282049050600182168061203057607f821691505b60208210810361204357612042611fec565b5b50919050565b7f4164647265737320616c72656164792068617320616e205342540000000000005f82015250565b5f61207d601a83611b53565b915061208882612049565b602082019050919050565b5f6020820190508181035f8301526120aa81612071565b9050919050565b7f4e487b71000000000000000000000000000000000000000000000000000000005f52601160045260245ffd5b5f6120e882611bd9565b91507fffffffffffffffffffffffffffffffffffffffffffffffffffffffffffffffff820361211a576121196120b1565b5b600182019050919050565b5f6060820190506121385f830186611c67565b6121456020830185611d72565b6121526040830184611c67565b949350505050565b5f81905092915050565b5f61216e82611b49565b612178818561215a565b9350612188818560208601611b63565b80840191505092915050565b5f61219f8285612164565b91506121ab8284612164565b91508190509392505050565b7f5342543a207472616e73666572206e6f7420616c6c6f776564000000000000005f82015250565b5f6121eb601983611b53565b91506121f6826121b7565b602082019050919050565b5f6020820190508181035f830152612218816121df565b9050919050565b5f81519050919050565b5f82825260208201905092915050565b5f6122438261221f565b61224d8185612229565b935061225d818560208601611b63565b61226681611b71565b840191505092915050565b5f6080820190506122845f830187611c67565b6122916020830186611c67565b61229e6040830185611d72565b81810360608301526122b08184612239565b905095945050505050565b5f815190506122c981611ac1565b92915050565b5f602082840312156122e4576122e3611a8e565b5b5f6122f1848285016122bb565b91505092915050565b7f4e487b71000000000000000000000000000000000000000000000000000000005f52601260045260245ffd5b5f60408201905061233a5f830185611c67565b6123476020830184611d72565b939250505056fea26469706673582212204712d234de6ec6fd9a42c2bc046d1c11034110e806122913570d299599cbc3d564736f6c634300081c0033","linkReferences":{}},"methodIdentifiers":{"approve(address,uint256)":"095ea7b3","balanceOf(address)":"70a08231","getApproved(uint256)":"081812fc","hasSBT(address)":"56a9c454","hasSoulboundToken(address)":"889d77b8","isApprovedForAll(address,address)":"e985e9c5","mint()":"1249c58b","name()":"06fdde03","owner()":"8da5cb5b","ownerOf(uint256)":"6352211e","renounceOwnership()":"715018a6","safeTransferFrom(address,address,uint256)":"42842e0e","safeTransferFrom(address,address,uint256,bytes)":"b88d4fde","setApprovalForAll(address,bool)":"a22cb465","supportsInterface(bytes4)":"01ffc9a7","symbol()":"95d89b41","tokenURI(uint256)":"c87b56dd","transferFrom(address,address,uint256)":"23b872dd","transferOwnership(address)":"f2fde38b"},"id":15}